{
  "contractName": "greeter",
  "abi": [
    {
      "constant": false,
      "inputs": [
        {
          "internalType": "string",
          "name": "new_greeting",
          "type": "string"
        },
        {
          "internalType": "uint256",
          "name": "new_claim",
          "type": "uint256"
        }
      ],
      "name": "greet",
      "outputs": [],
      "payable": false,
      "stateMutability": "nonpayable",
      "type": "function"
    },
    {
      "constant": true,
      "inputs": [],
      "name": "getGreeting",
      "outputs": [
        {
          "internalType": "string[]",
          "name": "",
          "type": "string[]"
        },
        {
          "internalType": "uint256",
          "name": "",
          "type": "uint256"
        }
      ],
      "payable": false,
      "stateMutability": "view",
      "type": "function"
    }
  ],
  "bytecode": "0x6080604052600060015534801561001557600080fd5b5061057f806100256000396000f3fe608060405234801561001057600080fd5b50600436106100365760003560e01c80634c1160111461003b578063fe50cc7214610057575b600080fd5b610055600480360361005091908101906102c5565b610076565b005b61005f6100c4565b60405161006d9291906103ea565b60405180910390f35b60008290806001815401808255809150509060018203906000526020600020016000909192909190915090805190602001906100b39291906101b7565b505080600154016001819055505050565b606060008060015481805480602002602001604051908101604052809291908181526020016000905b828210156101a9578382906000526020600020018054600181600116156101000203166002900480601f0160208091040260200160405190810160405280929190818152602001828054600181600116156101000203166002900480156101955780601f1061016a57610100808354040283529160200191610195565b820191906000526020600020905b81548152906001019060200180831161017857829003601f168201915b5050505050815260200190600101906100ed565b505050509150915091509091565b828054600181600116156101000203166002900490600052602060002090601f016020900481019282601f106101f857805160ff1916838001178555610226565b82800160010185558215610226579182015b8281111561022557825182559160200191906001019061020a565b5b5090506102339190610237565b5090565b61025991905b8082111561025557600081600090555060010161023d565b5090565b90565b600082601f83011261026d57600080fd5b813561028061027b82610447565b61041a565b9150808252602083016020830185838301111561029c57600080fd5b6102a78382846104d2565b50505092915050565b6000813590506102bf81610525565b92915050565b600080604083850312156102d857600080fd5b600083013567ffffffffffffffff8111156102f257600080fd5b6102fe8582860161025c565b925050602061030f858286016102b0565b9150509250929050565b600061032583836103a2565b905092915050565b600061033882610483565b61034281856104a6565b93508360208202850161035485610473565b8060005b8581101561039057848403895281516103718582610319565b945061037c83610499565b925060208a01995050600181019050610358565b50829750879550505050505092915050565b60006103ad8261048e565b6103b781856104b7565b93506103c78185602086016104e1565b6103d081610514565b840191505092915050565b6103e4816104c8565b82525050565b60006040820190508181036000830152610404818561032d565b905061041360208301846103db565b9392505050565b6000604051905081810181811067ffffffffffffffff8211171561043d57600080fd5b8060405250919050565b600067ffffffffffffffff82111561045e57600080fd5b601f19601f8301169050602081019050919050565b6000819050602082019050919050565b600081519050919050565b600081519050919050565b6000602082019050919050565b600082825260208201905092915050565b600082825260208201905092915050565b6000819050919050565b82818337600083830152505050565b60005b838110156104ff5780820151818401526020810190506104e4565b8381111561050e576000848401525b50505050565b6000601f19601f8301169050919050565b61052e816104c8565b811461053957600080fd5b5056fea365627a7a72315820aefd9ff7a3ff9be1dbf1389789d6eae5ae89ba8b0d35e1f5d3c919c2eb9f21896c6578706572696d656e74616cf564736f6c63430005100040",
  "source": "\r\npragma solidity ^0.5.7;\r\npragma experimental ABIEncoderV2;\r\n\r\ncontract greeter{\r\n    string[] private my_array;\r\n    uint claim_amount=0;\r\n    \r\n    function greet(string memory new_greeting, uint256 new_claim)public {\r\n       my_array.push(new_greeting);\r\n       claim_amount= claim_amount+new_claim;\r\n    }\r\n    function getGreeting() public view returns(string [] memory, uint) {\r\n        return (my_array, claim_amount);\r\n    }\r\n}",
  "sourcePath": "/mnt/d/github/insuranceblockchain/contracts/greetings.sol",
  "compiler": {
    "name": "solc",
    "version": "0.5.16+commit.9c3226ce.Emscripten.clang"
  },
  "schemaVersion": "3.3.4",
  "updatedAt": "2021-03-24T03:02:26.943Z",
  "devdoc": {
    "methods": {}
  },
  "userdoc": {
    "methods": {}
  }
}