{
  "contractName": "InsuranceContract",
  "abi": [
    {
      "inputs": [
        {
          "internalType": "address",
          "name": "insurerValue",
          "type": "address"
        },
        {
          "internalType": "address",
          "name": "insuredValue",
          "type": "address"
        },
        {
          "internalType": "string",
          "name": "insurername",
          "type": "string"
        },
        {
          "internalType": "string",
          "name": "insuredname",
          "type": "string"
        }
      ],
      "payable": false,
      "stateMutability": "nonpayable",
      "type": "constructor"
    },
    {
      "constant": true,
      "inputs": [],
      "name": "getInfo",
      "outputs": [
        {
          "internalType": "address",
          "name": "insurerValue",
          "type": "address"
        },
        {
          "internalType": "address",
          "name": "insuredValue",
          "type": "address"
        },
        {
          "internalType": "string",
          "name": "insurername",
          "type": "string"
        },
        {
          "internalType": "string",
          "name": "insuredname",
          "type": "string"
        }
      ],
      "payable": false,
      "stateMutability": "view",
      "type": "function"
    }
  ],
  "bytecode": "0x608060405234801561001057600080fd5b506040516106743803806106748339818101604052608081101561003357600080fd5b8101908080519060200190929190805190602001909291908051604051939291908464010000000082111561006757600080fd5b8382019150602082018581111561007d57600080fd5b825186600182028301116401000000008211171561009a57600080fd5b8083526020830192505050908051906020019080838360005b838110156100ce5780820151818401526020810190506100b3565b50505050905090810190601f1680156100fb5780820380516001836020036101000a031916815260200191505b506040526020018051604051939291908464010000000082111561011e57600080fd5b8382019150602082018581111561013457600080fd5b825186600182028301116401000000008211171561015157600080fd5b8083526020830192505050908051906020019080838360005b8381101561018557808201518184015260208101905061016a565b50505050905090810190601f1680156101b25780820380516001836020036101000a031916815260200191505b50604052505050836000806101000a81548173ffffffffffffffffffffffffffffffffffffffff021916908373ffffffffffffffffffffffffffffffffffffffff16021790555082600160006101000a81548173ffffffffffffffffffffffffffffffffffffffff021916908373ffffffffffffffffffffffffffffffffffffffff1602179055508160029080519060200190610250929190610271565b508060039080519060200190610267929190610271565b5050505050610316565b828054600181600116156101000203166002900490600052602060002090601f016020900481019282601f106102b257805160ff19168380011785556102e0565b828001600101855582156102e0579182015b828111156102df5782518255916020019190600101906102c4565b5b5090506102ed91906102f1565b5090565b61031391905b8082111561030f5760008160009055506001016102f7565b5090565b90565b61034f806103256000396000f3fe608060405234801561001057600080fd5b506004361061002b5760003560e01c80635a9b0b8914610030575b600080fd5b610038610185565b604051808573ffffffffffffffffffffffffffffffffffffffff1673ffffffffffffffffffffffffffffffffffffffff1681526020018473ffffffffffffffffffffffffffffffffffffffff1673ffffffffffffffffffffffffffffffffffffffff1681526020018060200180602001838103835285818151815260200191508051906020019080838360005b838110156100e05780820151818401526020810190506100c5565b50505050905090810190601f16801561010d5780820380516001836020036101000a031916815260200191505b50838103825284818151815260200191508051906020019080838360005b8381101561014657808201518184015260208101905061012b565b50505050905090810190601f1680156101735780820380516001836020036101000a031916815260200191505b50965050505050505060405180910390f35b6000806060806000809054906101000a900473ffffffffffffffffffffffffffffffffffffffff16600160009054906101000a900473ffffffffffffffffffffffffffffffffffffffff1660026003818054600181600116156101000203166002900480601f0160208091040260200160405190810160405280929190818152602001828054600181600116156101000203166002900480156102695780601f1061023e57610100808354040283529160200191610269565b820191906000526020600020905b81548152906001019060200180831161024c57829003601f168201915b50505050509150808054600181600116156101000203166002900480601f0160208091040260200160405190810160405280929190818152602001828054600181600116156101000203166002900480156103055780601f106102da57610100808354040283529160200191610305565b820191906000526020600020905b8154815290600101906020018083116102e857829003601f168201915b5050505050905093509350935093509091929356fea265627a7a723158203bece8fdb7401ca3b58c2b02a1abaad975b84aa5bb49fa58e6fabfe8736f36fe64736f6c63430005100032",
  "source": "pragma solidity >=0.5.0;\r\n\r\ncontract InsuranceContract {\r\n        address private insurer;\r\n        address private insured;\r\n        string insurerName;\r\n        string insuredName;\r\n      \r\n        \r\n    constructor (\r\n        address insurerValue,\r\n        address insuredValue,\r\n        string memory insurername,\r\n        string memory insuredname\r\n        \r\n    ) public {\r\n        \r\n        insurer= insurerValue;\r\n        insured= insuredValue;\r\n        insurerName = insurername;\r\n        insuredName = insuredname;\r\n        \r\n    }\r\n\r\n\r\nfunction getInfo() public view returns(\r\n        address insurerValue,\r\n        address insuredValue,\r\n        string memory insurername,\r\n        string memory insuredname)\r\n          {\r\n        return (insurer,insured,insurerName,insuredName);\r\n    }\r\n\r\n\r\n    \r\n    \r\n}",
  "sourcePath": "/mnt/d/github/PythonEthereumSmartContracts/contracts/insurancecontract.sol",
  "compiler": {
    "name": "solc",
    "version": "0.5.16+commit.9c3226ce.Emscripten.clang"
  },
  "schemaVersion": "3.3.4",
  "updatedAt": "2021-03-17T03:04:37.795Z",
  "devdoc": {
    "methods": {}
  },
  "userdoc": {
    "methods": {}
  }
}