{
  "contractName": "InsuranceContract",
  "abi": [
    {
      "inputs": [
        {
          "internalType": "address",
          "name": "insurerValue",
          "type": "address"
        },
        {
          "internalType": "address",
          "name": "insuredValue",
          "type": "address"
        },
        {
          "internalType": "string",
          "name": "insurername",
          "type": "string"
        },
        {
          "internalType": "string",
          "name": "insuredname",
          "type": "string"
        },
        {
          "internalType": "uint256",
          "name": "value",
          "type": "uint256"
        }
      ],
      "payable": false,
      "stateMutability": "nonpayable",
      "type": "constructor"
    },
    {
      "constant": true,
      "inputs": [],
      "name": "getInfo",
      "outputs": [
        {
          "internalType": "address",
          "name": "insurerValue",
          "type": "address"
        },
        {
          "internalType": "address",
          "name": "insuredValue",
          "type": "address"
        },
        {
          "internalType": "string",
          "name": "insurername",
          "type": "string"
        },
        {
          "internalType": "string",
          "name": "insuredname",
          "type": "string"
        },
        {
          "internalType": "uint256",
          "name": "value",
          "type": "uint256"
        }
      ],
      "payable": false,
      "stateMutability": "view",
      "type": "function"
    }
  ],
  "bytecode": "0x608060405234801561001057600080fd5b50604051610692380380610692833981810160405260a081101561003357600080fd5b8101908080519060200190929190805190602001909291908051604051939291908464010000000082111561006757600080fd5b8382019150602082018581111561007d57600080fd5b825186600182028301116401000000008211171561009a57600080fd5b8083526020830192505050908051906020019080838360005b838110156100ce5780820151818401526020810190506100b3565b50505050905090810190601f1680156100fb5780820380516001836020036101000a031916815260200191505b506040526020018051604051939291908464010000000082111561011e57600080fd5b8382019150602082018581111561013457600080fd5b825186600182028301116401000000008211171561015157600080fd5b8083526020830192505050908051906020019080838360005b8381101561018557808201518184015260208101905061016a565b50505050905090810190601f1680156101b25780820380516001836020036101000a031916815260200191505b5060405260200180519060200190929190505050846000806101000a81548173ffffffffffffffffffffffffffffffffffffffff021916908373ffffffffffffffffffffffffffffffffffffffff16021790555083600160006101000a81548173ffffffffffffffffffffffffffffffffffffffff021916908373ffffffffffffffffffffffffffffffffffffffff160217905550826002908051906020019061025d929190610282565b508160039080519060200190610274929190610282565b508090505050505050610327565b828054600181600116156101000203166002900490600052602060002090601f016020900481019282601f106102c357805160ff19168380011785556102f1565b828001600101855582156102f1579182015b828111156102f05782518255916020019190600101906102d5565b5b5090506102fe9190610302565b5090565b61032491905b80821115610320576000816000905550600101610308565b5090565b90565b61035c806103366000396000f3fe608060405234801561001057600080fd5b506004361061002b5760003560e01c80635a9b0b8914610030575b600080fd5b61003861018c565b604051808673ffffffffffffffffffffffffffffffffffffffff1673ffffffffffffffffffffffffffffffffffffffff1681526020018573ffffffffffffffffffffffffffffffffffffffff1673ffffffffffffffffffffffffffffffffffffffff1681526020018060200180602001848152602001838103835286818151815260200191508051906020019080838360005b838110156100e65780820151818401526020810190506100cb565b50505050905090810190601f1680156101135780820380516001836020036101000a031916815260200191505b50838103825285818151815260200191508051906020019080838360005b8381101561014c578082015181840152602081019050610131565b50505050905090810190601f1680156101795780820380516001836020036101000a031916815260200191505b5097505050505050505060405180910390f35b60008060608060008060009054906101000a900473ffffffffffffffffffffffffffffffffffffffff16600160009054906101000a900473ffffffffffffffffffffffffffffffffffffffff166002600384828054600181600116156101000203166002900480601f0160208091040260200160405190810160405280929190818152602001828054600181600116156101000203166002900480156102735780601f1061024857610100808354040283529160200191610273565b820191906000526020600020905b81548152906001019060200180831161025657829003601f168201915b50505050509250818054600181600116156101000203166002900480601f01602080910402602001604051908101604052809291908181526020018280546001816001161561010002031660029004801561030f5780601f106102e45761010080835404028352916020019161030f565b820191906000526020600020905b8154815290600101906020018083116102f257829003601f168201915b5050505050915094509450945094509450909192939456fea265627a7a7231582021be174d97358c396180f4cbf194de1b0ab81d616260376c6cf43837893f50b464736f6c63430005100032",
  "source": "pragma solidity >=0.5.0;\r\n\r\ncontract InsuranceContract {\r\n        address private insurer;\r\n        address private insured;\r\n        string insurerName;\r\n        string insuredName;\r\n      \r\n        \r\n    constructor (\r\n        address insurerValue,\r\n        address insuredValue,\r\n        string memory insurername,\r\n        string memory insuredname,\r\n        uint value\r\n        \r\n    ) public {\r\n        \r\n        insurer= insurerValue;\r\n        insured= insuredValue;\r\n        insurerName = insurername;\r\n        insuredName = insuredname;\r\n        value = value;\r\n        \r\n    }\r\n\r\n\r\nfunction getInfo() public view returns(\r\n        address insurerValue,\r\n        address insuredValue,\r\n        string memory insurername,\r\n        string memory insuredname,\r\n        uint value)\r\n          {\r\n        return (insurer,insured,insurerName,insuredName,value);\r\n    }\r\n\r\n\r\n    \r\n    \r\n}",
  "sourcePath": "/mnt/d/github/insuranceblockchain/contracts/insurancecontract.sol",
  "compiler": {
    "name": "solc",
    "version": "0.5.16+commit.9c3226ce.Emscripten.clang"
  },
  "schemaVersion": "3.3.4",
  "updatedAt": "2021-03-22T06:18:02.477Z",
  "devdoc": {
    "methods": {}
  },
  "userdoc": {
    "methods": {}
  }
}